:100000000C942A000C9463000C9434000C9434007B
:100010000C9434000C9434000C9434000C94340090
:100020000C9434000C9434000C9434000C94340080
:100030000C9434000C9434000C9434000C94340070
:100040000C9434000C9434000C9434000C94340060
:100050000C94340011241FBECFE5D8E0DEBFCDBF25
:100060000E948C000C94B0000C940000CF93DF939E
:100070001F92CDB7DEB78983898190E0062E02C03A
:10008000959587950A94E2F780FD11C081EE94E082
:100090000197F1F700C00000898190E002C09595BA
:1000A00087956A95E2F780FD04C081E003C080E097
:1000B00001C080E00F90DF91CF91089598B383E065
:1000C000892788BB08951F920F920FB60F921124B3
:1000D0002F933F934F935F936F937F938F939F9350
:1000E000AF93BF93EF93FF9380B362E00E9436001B
:1000F00081110E945E00FF91EF91BF91AF919F919E
:100100008F917F916F915F914F913F912F910F90C0
:100110000FBE0F901F901895789482B3846082BBB5
:100120008BB780648BBF85B7826085BF87B38160E2
:1001300087BB87B3826087BB88B3816088BB81B38C
:10014000806281BB8FB580648FBD8EB588608EBDA7
:1001500083E193E19BBD8ABD8EB585608EBDFFCFE7
:04016000F894FFCF41
:00000001FF
