S018000041737369676E6D656E743255534152542E7372656332
S11300000C942A000C947A000C94A5000C943400EF
S11300100C9434000C9434000C9434000C9434008C
S11300200C9434000C9434000C9434000C9434007C
S11300300C9434000C94D0000C9434000C943400D0
S11300400C9434000C9434000C9434000C9434005C
S11300500C94340011241FBECFE5D8E0DEBFCDBF21
S11300600E9413010C9435010C94000010BC85E02F
S113007089B98AB180688AB98AB188608AB98AB133
S113008080618AB98EE080BD08955D9BFECF8CB9F6
S113009008955F9BFECF8CB10895CF93DF931F9299
S11300A0CDB7DEB78983898190E0062E02C095958D
S11300B087950A94E2F780FD11C081EE94E00197E0
S11300C0F1F700C00000898190E002C09595879502
S11300D06A95E2F780FD04C081E003C080E001C0BE
S11300E080E00F90DF91CF91089598B383E0892742
S11300F088BB08951F920F920FB60F9211242F936D
S11301003F934F935F936F937F938F939F93AF939B
S1130110BF93EF93FF9380B362E00E944D00882366
S113012019F081E60E944500FF91EF91BF91AF91D4
S11301309F918F917F916F915F914F913F912F91FB
S11301400F900FBE0F901F9018951F920F920FB62D
S11301500F9211242F933F934F935F936F937F9349
S11301608F939F93AF93BF93EF93FF9380B363E019
S11301700E944D00882319F082E60E944500FF91F9
S1130180EF91BF91AF919F918F917F916F915F910B
S11301904F913F912F910F900FBE0F901F90189584
S11301A01F920F920FB60F9211242F933F934F93E8
S11301B05F936F937F938F939F93AF93BF93EF93CB
S11301C0FF930E944900813619F40E9475001AC0F9
S11301D08236C1F40E9475002FE58AEE90E021502A
S11301E080409040E1F700C000000E9475002FE5B8
S11301F08AEE90E0215080409040E1F700C000007A
S11302000E947500FF91EF91BF91AF919F918F91E3
S11302107F916F915F914F913F912F910F900FBEFE
S11302200F901F9018950E943600789482B38460D2
S113023082BB8BB780648BBF85B7826085BF82B376
S1130240886082BB8BB780688BBF85B7886085BFA9
S113025087B3816087BB87B3826087BB87B38460C1
S111026087BB88B3816088BBFFCFF894FFCFC3
S9030000FC
